:100000000C948B000C94AA000C94AA000C94AA00E7
:100010000C94AA000C94AA000C94AA000C94AA00B8
:100020000C94AA000C94AA000C94AA000C94AA00A8
:100030000C94AA000C944C020C94AA000C94AA00F4
:100040000C94AA000C94AA000C94AA000C94AA0088
:100050000C94AA000C94AA000C94AA000C94AA0078
:100060000C94AA000C94AA000C94AA000C94AA0068
:100070000C94AA000C94AA000C94AA000C94AA0058
:100080000C94AA000C94AA000C94AA0058049B0497
:100090009B049B049B049B049B049B049B049B0468
:1000A0009B049B049B049B049B049B049B049B0458
:1000B0009B049B049B049B049B049B049B049B0448
:1000C0009B049B049B049B049B049B049B049B0438
:1000D0009B0497049B049B049B049B049B049B042C
:1000E00090049B049B049B049B049B0494045C0469
:1000F0006004640468046C047004740478047C0470
:100100009B049B049B049B049B049B049B04800412
:10011000840488048C0411241FBECFEFD0E4DEBF1A
:10012000CDBF11E0A0E0B1E0E6E1FEE000E00BBFF2
:1001300002C007900D92A632B107D9F721E0A6E2DE
:10014000B1E001C01D92A334B207E1F70E945F0540
:100150000C9409070C940000CF93DF93CDB7DEB762
:1001600081E00E94D3000000DF91CF910895CF93EA
:10017000DF93CDB7DEB784E690E00E94770188E395
:100180000E94D30086E00E94D3008FE00E94D3003B
:1001900081E00E94D3008AE090E00E947701000095
:1001A000DF91CF910895CF93DF931F92CDB7DEB744
:1001B00089838BE290E02BE230E0F90120812F7BF4
:1001C000FC01208385E290E02981FC0120838BE201
:1001D00090E02BE230E0F90120812068FC012083CF
:1001E00000008BE290E02BE230E0F90120812F77D4
:1001F000FC01208382E090E00E94770100000F90D4
:10020000DF91CF910895CF93DF931F92CDB7DEB7E3
:1002100089838BE290E02BE230E0F90120812064B9
:10022000FC01208385E290E02981FC0120838BE2A0
:1002300090E02BE230E0F90120812068FC0120836E
:1002400000008BE290E02BE230E0F90120812F7773
:10025000FC01208381E090E00E94770100000F9074
:10026000DF91CF910895CF93DF9300D000D0CDB729
:10027000DEB78A837C836B830E94AC008A8189838A
:1002800011C0898191E0980F99830E9460018B8150
:100290009C819C012F5F3F4F3C832B83FC0180811D
:1002A0000E9403018B819C81FC018081882349F796
:1002B00000000F900F900F900F90DF91CF91089555
:1002C000CF93DF931F92CDB7DEB7898389818131C8
:1002D00028F4898181580E94D30004C08981815506
:1002E0000E94D30000000F90DF91CF910895CF932B
:1002F000DF9300D000D000D0CDB7DEB79E838D83D2
:100300001A82198213C01C821B8206C000008B81D6
:100310009C8101969C838B838B819C818730934049
:10032000ACF389819A8101969A83898329813A81E4
:100330008D819E812817390734F3000026960FB669
:10034000F894DEBF0FBECDBFDF91CF910895CF935C
:10035000DF9300D01F92CDB7DEB789837B836A839A
:1003600089818A3031F48A819B81BC018DE00E94B1
:10037000A70180EC90E0FC018081882F90E08072E2
:100380009927892BB1F386EC90E02981FC01208329
:1003900080E090E00F900F900F90DF91CF91089543
:1003A000CF93DF9300D000D0CDB7DEB769837A83D7
:1003B0008B839C8389819A81AB81BC8180930E0160
:1003C00090930F01A0931001B093110180910E0141
:1003D00090910F01A0911001B0911101809327011C
:1003E00090932801A0932901B0932A0100000F9057
:1003F0000F900F900F90DF91CF910895CF93DF93DF
:10040000CDB7DEB781E890E02BE0FC01208388E8DF
:1004100090E02DE730E0FC01318320838FE690E00F
:1004200022E0FC01208384E890E0FC01118210822C
:1004300080910E0190910F01A0911001B0911101D6
:100440008093270190932801A0932901B0932A015A
:100450008FE590E02FE530E0F90120812068FC0174
:1004600020830000DF91CF910895CF93DF93CDB724
:10047000DEB781E890E0FC0110820000DF91CF91AF
:100480000895CF93DF93CDB7DEB781E08093260147
:100490000000DF91CF9108951F920F9200905F00AE
:1004A0000F92112400905B000F922F933F934F9374
:1004B0005F936F937F938F939F93AF93BF93EF93CC
:1004C000FF93CF93DF93CDB7DEB780912701909153
:1004D0002801A0912901B0912A010197A109B10930
:1004E0008093270190932801A0932901B0932A01BA
:1004F0008091270190912801A0912901B0912A01B2
:10050000892B8A2B8B2B91F40E94410280910E0142
:1005100090910F01A0911001B091110180932701DA
:1005200090932801A0932901B0932A010000DF9144
:10053000CF91FF91EF91BF91AF919F918F917F915B
:100540006F915F914F913F912F910F9000925B00BF
:100550000F9000925F000F901F901895CF93DF933C
:1005600000D01F92CDB7DEB789836A834B838B811E
:10057000882371F08A81282F30E081E090E002C06A
:10058000880F991F2A95E2F7982F8981892B0EC031
:100590008A81282F30E081E090E002C0880F991F07
:1005A0002A95E2F7982F9095898189230F900F90D3
:1005B0000F90DF91CF910895CF93DF9300D0CDB707
:1005C000DEB789836A838A81282F30E081E090E05A
:1005D00002C0880F991F2A95E2F7982F89818923F5
:1005E0000F900F90DF91CF910895CF93DF93CDB708
:1005F000DEB72C970FB6F894DEBF0FBECDBF6D836C
:100600007E838F83988729873A874B875C878D8184
:100610009E81AF81B88529853A854B855C85BC0173
:10062000CD010E94DE06DC01CB0189839A83AB8376
:10063000BC8389819A81AB81BC81892B8A2B8B2BCE
:1006400029F489859A85AB85BC8511C089859A85F1
:10065000AB85BC858D839E83AF83B88789819A8162
:10066000AB81BC8189879A87AB87BC87D0CFBC011F
:10067000CD012C960FB6F894DEBF0FBECDBFDF9133
:10068000CF9108950F931F93CF93DF93CDB7DEB72C
:1006900008E210E040E064E08FEF0E94AE02F80153
:1006A0008083000086E290E0FC018081809560E01C
:1006B0000E94DC02882311F081E3D3C086E290E03F
:1006C000FC018081809561E00E94DC02882311F0AA
:1006D00084E3C7C086E290E0FC018081809562E0FF
:1006E0000E94DC02882311F087E3BBC086E290E021
:1006F000FC018081809563E00E94DC02882311F078
:100700008AE2AFC008E210E040E065E08FEF0E94AF
:10071000AE02F8018083000086E290E0FC01808157
:10072000809560E00E94DC02882311F082E399C08A
:1007300086E290E0FC018081809561E00E94DC020D
:10074000882311F085E38DC086E290E0FC01808172
:10075000809562E00E94DC02882311F088E381C06A
:1007600086E290E0FC018081809563E00E94DC02DB
:10077000882311F080E375C008E210E040E066E0F5
:100780008FEF0E94AE02F8018083000086E290E0C5
:10079000FC018081809560E00E94DC02882311F0DA
:1007A00083E35FC086E290E0FC018081809561E098
:1007B0000E94DC02882311F086E353C086E290E0B9
:1007C000FC018081809562E00E94DC02882311F0A8
:1007D00089E347C086E290E0FC018081809563E078
:1007E0000E94DC02882311F083E23BC008E210E0A3
:1007F00040E067E08FEF0E94AE02F80180830000C6
:1008000086E290E0FC018081809560E00E94DC023D
:10081000882311F081E425C086E290E0FC0180810C
:10082000809561E00E94DC02882311F082E419C007
:1008300086E290E0FC018081809562E00E94DC020B
:10084000882311F083E40DC086E290E0FC018081F2
:10085000809563E00E94DC02882311F084E401C0EB
:1008600080E0DF91CF911F910F910895CF93DF9397
:1008700000D0CDB7DEB79A8389830E94420380936C
:10088000410180914101882F90E0092E000CAA0BB4
:10089000BB0B40E050E024E430E0841B950B2817AC
:1008A000390708F448C08A5B9F4FFC010C9400078D
:1008B0008FE18093420143C081E0809342013FC0B9
:1008C00082E0809342013BC083E08093420137C0C5
:1008D00084E08093420133C085E0809342012FC0C1
:1008E00086E0809342012BC087E08093420127C0BD
:1008F00088E08093420123C089E0809342011FC0B9
:1009000081E1809342011BC082E18093420117C0C4
:1009100083E18093420113C084E1809342010FC0C0
:100920008EE0809342010BC01092420108C08FE01C
:100930008093420104C08BE18093420100008981D1
:100940009A810F900F90DF91CF910895CF93DF930D
:1009500000D01F92CDB7DEB79B838A838A819B81AB
:100960008130910589F0823091051CF4892B39F092
:1009700034C082309105D1F00397E9F02EC081E0B8
:1009800090E09B838A832CC0809142018F3149F093
:10099000809142018B3129F082E090E09B838A8331
:1009A0001FC081E090E09B838A831AC083E090E0BF
:1009B0009B838A8315C0809142018F3149F08091D9
:1009C00042018B3129F083E090E09B838A8308C049
:1009D00081E090E09B838A8303C01B821A8200001F
:1009E0008A819B818130910509F460C08230910534
:1009F0001CF4892B21F05BC0029751F058C0809104
:100A0000120190911301BC0181E00E9433014FC09B
:100A100080911401813118F081E08093140180915C
:100A200042018E3081F0809142018F3061F08091DF
:100A3000140191E0980F909314010E94600180913D
:100A4000420189831DC0809142018E3059F480910A
:100A5000140191E0980F909314010E9460018AE2C2
:100A600089830EC0809142018F3051F4809114012E
:100A700091E0980F909314010E94600183E28983B2
:100A8000809142018E3021F0809142018F3039F403
:100A90008981882F90E00E940301000008C08981AD
:100AA000882F90E0C0960E94030101C000008A8157
:100AB0009B810F900F900F90DF91CF9108950F932E
:100AC0001F93CF93DF93CDB7DEB72D970FB6F89472
:100AD000DEBF0FBECDBF84E290E02FEFFC0120838C
:100AE00085E290E0FC01108287E290E020EFFC01BB
:100AF000208388E290E02FE0FC0120838AE290E0EE
:100B00002FEFFC0120838BE290E0FC0110820E9419
:100B1000B7008BE291E09B878A8786E391E09D870F
:100B20008C8782E090E098878F838FEF8987898513
:100B300080932B018AE090E0A0E0B0E080932C014C
:100B400090932D01A0932E01B0932F0180912C0141
:100B500090912D01A0912E01B0912F018093300131
:100B600090933101A0933201B093330186E394E076
:100B700090933501809334018985809336018AE012
:100B800090E0A0E0B0E08093370190933801A0930B
:100B90003901B0933A018091370190913801A091C9
:100BA0003901B0913A0180933B0190933C01A093AD
:100BB0003D01B0933E0186EA94E09093400180931A
:100BC0003F018A859B85FC0181819281A381B4814B
:100BD0008A839B83AC83BD8381E08E8324C08E8116
:100BE000882F90E0880F991F9E012F5F3F4F820F43
:100BF000931F0996FC0180819181FC012181328142
:100C0000438154818A819B81AC81BD81BC01CD012E
:100C10000E94F502DC01CB018A839B83AC83BD83F8
:100C20008E818F5F8E838E81282F30E08F81988513
:100C300028173907A0F28A819B81AC81BD81BC0154
:100C4000CD010E94D0010E94FE011982A6C08981B7
:100C5000882F90E0880F991F9E012F5F3F4F820FD2
:100C6000931F0996FC0180819181FC0125813681C9
:100C7000478150858981882F90E0880F991FBE0198
:100C80006F5F7F4F860F971F0996FC0180819181CE
:100C9000FC0181819281A381B481281739074A0719
:100CA0005B0709F049C08981882F90E0880F991F60
:100CB0009E012F5F3F4F820F931F0996FC01008119
:100CC00011818981882F90E0880F991F9E012F5FE5
:100CD0003F4F820F931F0996FC0180819181FC0197
:100CE000218532858981882F90E0880F991FAE0178
:100CF0004F5F5F4F840F951F0996FC0180819181A2
:100D0000FC018081082E000C990BF9010995F8016E
:100D100080838981882F90E0880F991F9E012F5F23
:100D20003F4F820F931F0996FC0180819181FC0146
:100D300015821682178210868981882F90E0880F8D
:100D4000991F9E012F5F3F4F820F931F0996FC0151
:100D5000608171818981882F90E0880F991F9E01A1
:100D60002F5F3F4F820F931F0996FC018081918175
:100D7000FC0125813681478150858A819B81AC8128
:100D8000BD81820F931FA41FB51FFB01858396832E
:100D9000A783B08789818F5F89838981282F30E07D
:100DA0008F8198852817390708F451CF000080916A
:100DB00026018823E1F31092260147CFA1E21A2EE3
:100DC000AA1BBB1BFD010DC0AA1FBB1FEE1FFF1FEF
:100DD000A217B307E407F50720F0A21BB30BE40B3F
:100DE000F50B661F771F881F991F1A9469F7609586
:100DF0007095809590959B01AC01BD01CF01089540
:100E0000EE0FFF1F0024001C0BBE0790F691E02D93
:060E10000994F894FFCFE5
:100E16000000000200000000A70100000000010021
:100E26000000150101436F6E67726174756C617421
:060E3600696F6E732100DC
:00000001FF
