:100000000C948B000C94AA000C94AA000C94AA00E7
:100010000C94AA000C94AA000C94AA000C94AA00B8
:100020000C94AA000C94AA000C94AA000C94AA00A8
:100030000C94AA000C944C020C94AA000C94AA00F4
:100040000C94AA000C94AA000C94AA000C94AA0088
:100050000C94AA000C94AA000C94AA000C94AA0078
:100060000C94AA000C94AA000C94AA000C94AA0068
:100070000C94AA000C94AA000C94AA000C94AA0058
:100080000C94AA000C94AA000C94AA0058049B0497
:100090009B049B049B049B049B049B049B049B0468
:1000A0009B049B049B049B049B049B049B049B0458
:1000B0009B049B049B049B049B049B049B049B0448
:1000C0009B049B049B049B049B049B049B049B0438
:1000D0009B0497049B049B049B049B049B049B042C
:1000E00090049B049B049B049B049B0494045C0469
:1000F0006004640468046C047004740478047C0470
:100100009B049B049B049B049B049B049B04800412
:10011000840488048C0411241FBECFEFD0E4DEBF1A
:10012000CDBF11E0A0E0B1E0ECEBFCE000E00BBFE4
:1001300002C007900D92A832B107D9F721E0A8E2DA
:10014000B1E001C01D92AA33B207E1F70E94DD04BD
:100150000C945C060C940000CF93DF93CDB7DEB710
:1001600081E00E94D3000000DF91CF910895CF93EA
:10017000DF93CDB7DEB784E690E00E94770188E395
:100180000E94D30086E00E94D3008FE00E94D3003B
:1001900081E00E94D3008AE090E00E947701000095
:1001A000DF91CF910895CF93DF931F92CDB7DEB744
:1001B000898385E290E025E230E0F90120812F7B00
:1001C000FC0120838BE290E02981FC01208385E201
:1001D00090E025E230E0F90120812068FC012083D5
:1001E000000085E290E025E230E0F90120812F77E0
:1001F000FC01208382E090E00E94770100000F90D4
:10020000DF91CF910895CF93DF931F92CDB7DEB7E3
:10021000898385E290E025E230E0F90120812064C5
:10022000FC0120838BE290E02981FC01208385E2A0
:1002300090E025E230E0F90120812068FC01208374
:10024000000085E290E025E230E0F90120812F777F
:10025000FC01208381E090E00E94770100000F9074
:10026000DF91CF910895CF93DF9300D000D0CDB729
:10027000DEB78A837C836B830E94AC008A8189838A
:1002800011C0898191E0980F99830E9460018B8150
:100290009C819C012F5F3F4F3C832B83FC0180811D
:1002A0000E9403018B819C81FC018081882349F796
:1002B00000000F900F900F900F90DF91CF91089555
:1002C000CF93DF931F92CDB7DEB7898389818131C8
:1002D00028F4898181580E94D30004C08981815506
:1002E0000E94D30000000F90DF91CF910895CF932B
:1002F000DF9300D000D000D0CDB7DEB79E838D83D2
:100300001A82198213C01C821B8206C000008B81D6
:100310009C8101969C838B838B819C818730934049
:10032000ACF389819A8101969A83898329813A81E4
:100330008D819E812817390734F3000026960FB669
:10034000F894DEBF0FBECDBFDF91CF910895CF935C
:10035000DF9300D01F92CDB7DEB789837B836A839A
:1003600089818A3031F48A819B81BC018DE00E94B1
:10037000A70180EC90E0FC018081882F90E08072E2
:100380009927892BB1F386EC90E02981FC01208329
:1003900080E090E00F900F900F90DF91CF91089543
:1003A000CF93DF9300D000D0CDB7DEB769837A83D7
:1003B0008B839C8389819A81AB81BC8180930E0160
:1003C00090930F01A0931001B093110180910E0141
:1003D00090910F01A0911001B0911101809329011A
:1003E00090932A01A0932B01B0932C0100000F9051
:1003F0000F900F900F90DF91CF910895CF93DF93DF
:10040000CDB7DEB781E890E02BE0FC01208388E8DF
:1004100090E02DE730E0FC01318320838FE690E00F
:1004200022E0FC01208384E890E0FC01118210822C
:1004300080910E0190910F01A0911001B0911101D6
:100440008093290190932A01A0932B01B0932C0152
:100450008FE590E02FE530E0F90120812068FC0174
:1004600020830000DF91CF910895CF93DF93CDB724
:10047000DEB781E890E0FC0110820000DF91CF91AF
:100480000895CF93DF93CDB7DEB781E08093280145
:100490000000DF91CF9108951F920F9200905F00AE
:1004A0000F92112400905B000F922F933F934F9374
:1004B0005F936F937F938F939F93AF93BF93EF93CC
:1004C000FF93CF93DF93CDB7DEB780912901909151
:1004D0002A01A0912B01B0912C010197A109B1092A
:1004E0008093290190932A01A0932B01B0932C01B2
:1004F0008091290190912A01A0912B01B0912C01AA
:10050000892B8A2B8B2B91F40E94410280910E0142
:1005100090910F01A0911001B091110180932901D8
:1005200090932A01A0932B01B0932C010000DF913E
:10053000CF91FF91EF91BF91AF919F918F917F915B
:100540006F915F914F913F912F910F9000925B00BF
:100550000F9000925F000F901F901895CF93DF933C
:1005600000D01F92CDB7DEB789836A834B838B811E
:10057000882371F08A81282F30E081E090E002C06A
:10058000880F991F2A95E2F7982F8981892B0EC031
:100590008A81282F30E081E090E002C0880F991F07
:1005A0002A95E2F7982F9095898189230F900F90D3
:1005B0000F90DF91CF910895CF93DF9300D0CDB707
:1005C000DEB789836A838A81282F30E081E090E05A
:1005D00002C0880F991F2A95E2F7982F89818923F5
:1005E0000F900F90DF91CF910895CF93DF93CDB708
:1005F000DEB72C970FB6F894DEBF0FBECDBF6D836C
:100600007E838F83988729873A874B875C878D8184
:100610009E81AF81B88529853A854B855C85BC0173
:10062000CD010E943106DC01CB0189839A83AB8323
:10063000BC8389819A81AB81BC81892B8A2B8B2BCE
:1006400029F489859A85AB85BC8511C089859A85F1
:10065000AB85BC858D839E83AF83B88789819A8162
:10066000AB81BC8189879A87AB87BC87D0CFBC011F
:10067000CD012C960FB6F894DEBF0FBECDBFDF9133
:10068000CF9108950F931F93CF93DF93CDB7DEB72C
:1006900008E210E040E064E08FEF0E94AE02F80153
:1006A0008083000086E290E0FC018081809560E01C
:1006B0000E94DC02882311F081E3D3C086E290E03F
:1006C000FC018081809561E00E94DC02882311F0AA
:1006D00084E3C7C086E290E0FC018081809562E0FF
:1006E0000E94DC02882311F087E3BBC086E290E021
:1006F000FC018081809563E00E94DC02882311F078
:100700008AE2AFC008E210E040E065E08FEF0E94AF
:10071000AE02F8018083000086E290E0FC01808157
:10072000809560E00E94DC02882311F082E399C08A
:1007300086E290E0FC018081809561E00E94DC020D
:10074000882311F085E38DC086E290E0FC01808172
:10075000809562E00E94DC02882311F088E381C06A
:1007600086E290E0FC018081809563E00E94DC02DB
:10077000882311F080E375C008E210E040E066E0F5
:100780008FEF0E94AE02F8018083000086E290E0C5
:10079000FC018081809560E00E94DC02882311F0DA
:1007A00083E35FC086E290E0FC018081809561E098
:1007B0000E94DC02882311F086E353C086E290E0B9
:1007C000FC018081809562E00E94DC02882311F0A8
:1007D00089E347C086E290E0FC018081809563E078
:1007E0000E94DC02882311F083E23BC008E210E0A3
:1007F00040E067E08FEF0E94AE02F80180830000C6
:1008000086E290E0FC018081809560E00E94DC023D
:10081000882311F081E425C086E290E0FC0180810C
:10082000809561E00E94DC02882311F082E419C007
:1008300086E290E0FC018081809562E00E94DC020B
:10084000882311F083E40DC086E290E0FC018081F2
:10085000809563E00E94DC02882311F084E401C0EB
:1008600080E0DF91CF911F910F910895CF93DF9397
:1008700000D0CDB7DEB79A8389830E94420380936C
:10088000380180913801882F90E0092E000CAA0BC6
:10089000BB0B40E050E024E430E0841B950B2817AC
:1008A000390708F448C08A5B9F4FFC010C9453063B
:1008B0008FE18093390143C081E0809339013FC0CB
:1008C00082E0809339013BC083E08093390137C0D7
:1008D00084E08093390133C085E0809339012FC0D3
:1008E00086E0809339012BC087E08093390127C0CF
:1008F00088E08093390123C089E0809339011FC0CB
:100900008AE0809339011BC08BE08093390117C0C6
:100910008CE08093390113C08DE0809339010FC0C2
:100920008EE0809339010BC01092390108C08FE02E
:100930008093390104C08BE18093390100008981E3
:100940009A810F900F90DF91CF910895CF93DF930D
:1009500000D0CDB7DEB79A83898389819A810097C9
:1009600019F0019731F00AC081E090E09A83898301
:100970000AC081E090E09A83898305C081E090E01D
:100980009A838983000089819A81019741F40E94AA
:10099000AC0062E171E081E00E94330100000E943E
:1009A000AC0061E271E081E00E94330189819A81AB
:1009B0000F900F90DF91CF9108950F931F93CF93D6
:1009C000DF93CDB7DEB72B970FB6F894DEBF0FBE1F
:1009D000CDBF84E290E02FEFFC01208385E290E020
:1009E000FC01108287E290E020EFFC01208388E286
:1009F00090E02FE0FC0120838AE290E02FEFFC01E1
:100A000020838BE290E0FC0110828DE291E09B87D5
:100A10008A8781E090E098878F838FEF8987898527
:100A200080932D018AE090E0A0E0B0E080932E0159
:100A300090932F01A0933001B093310180912E014A
:100A400090912F01A0913001B0913101809332013A
:100A500090933301A0933401B093350186EA94E07A
:100A600090933701809336018A859B85FC018181B3
:100A70009281A381B4818A839B83AC83BD8381E00F
:100A80008E8324C08E81882F90E0880F991F9E014D
:100A90002F5F3F4F820F931F0996FC018081918148
:100AA000FC0121813281438154818A819B81AC8107
:100AB000BD81BC01CD010E94F502DC01CB018A831E
:100AC0009B83AC83BD838E818F5F8E838E81282F25
:100AD00030E08F81988528173907A0F28A819B81A1
:100AE000AC81BD81BC01CD010E94D0010E94FE01FC
:100AF0001982A6C08981882F90E0880F991F9E01D6
:100B00002F5F3F4F820F931F0996FC0180819181D7
:100B1000FC0125813681478150858981882F90E0AD
:100B2000880F991FBE016F5F7F4F860F971F099631
:100B3000FC0180819181FC0181819281A381B4813A
:100B4000281739074A075B0709F049C08981882FB0
:100B500090E0880F991F9E012F5F3F4F820F931FD8
:100B60000996FC01008111818981882F90E0880F0E
:100B7000991F9E012F5F3F4F820F931F0996FC0123
:100B800080819181FC01218532858981882F90E0C7
:100B9000880F991FAE014F5F5F4F840F951F099615
:100BA000FC0180819181FC018081082E000C990B51
:100BB000F9010995F80180838981882F90E0880FD9
:100BC000991F9E012F5F3F4F820F931F0996FC01D3
:100BD00080819181FC01158216821782108689819D
:100BE000882F90E0880F991F9E012F5F3F4F820F43
:100BF000931F0996FC01608171818981882F90E0A3
:100C0000880F991F9E012F5F3F4F820F931F0996F8
:100C1000FC0180819181FC012581368147815085CD
:100C20008A819B81AC81BD81820F931FA41FB51F58
:100C3000FB0185839683A783B08789818F5F898332
:100C40008981282F30E08F8198852817390708F48B
:100C500051CF0000809128018823E1F310922801F0
:100C600047CFA1E21A2EAA1BBB1BFD010DC0AA1F74
:100C7000BB1FEE1FFF1FA217B307E407F50720F005
:100C8000A21BB30BE40BF50B661F771F881F991F80
:100C90001A9469F760957095809590959B01AC01C9
:100CA000BD01CF010895EE0FFF1F0024001C0BBEF5
:0C0CB0000790F691E02D0994F894FFCF16
:100CBC000000000200000000A7010000000001007D
:100CCC00000043533132304220697320636F6F6CE4
:080CDC000043533132304200A5
:00000001FF
