:100000000C948B000C94AA000C94AA000C94AA00E7
:100010000C94AA000C94AA000C94AA000C94AA00B8
:100020000C94AA000C94AA000C94AA000C94AA00A8
:100030000C94AA000C944C020C94AA000C94AA00F4
:100040000C94AA000C94AA000C94AA000C94AA0088
:100050000C94AA000C94AA000C94AA000C94AA0078
:100060000C94AA000C94AA000C94AA000C94AA0068
:100070000C94AA000C94AA000C94AA000C94AA0058
:100080000C94AA000C94AA000C94AA0058049B0497
:100090009B049B049B049B049B049B049B049B0468
:1000A0009B049B049B049B049B049B049B049B0458
:1000B0009B049B049B049B049B049B049B049B0448
:1000C0009B049B049B049B049B049B049B049B0438
:1000D0009B0497049B049B049B049B049B049B042C
:1000E00090049B049B049B049B049B0494045C0469
:1000F0006004640468046C047004740478047C0470
:100100009B049B049B049B049B049B049B04800412
:10011000840488048C0411241FBECFEFD0E4DEBF1A
:10012000CDBF11E0A0E0B1E0E2E0FFE000E00BBFF6
:1001300002C007900D92A035B107D9F721E0A0E5E4
:10014000B1E001C01D92A038B207E1F70E94AF05EF
:100150000C947F070C940000CF93DF93CDB7DEB7EC
:1001600081E00E94D3000000DF91CF910895CF93EA
:10017000DF93CDB7DEB784E690E00E94770188E395
:100180000E94D30086E00E94D3008FE00E94D3003B
:1001900081E00E94D3008AE090E00E947701000095
:1001A000DF91CF910895CF93DF931F92CDB7DEB744
:1001B00089838BE290E02BE230E0F90120812F7BF4
:1001C000FC01208385E290E02981FC0120838BE201
:1001D00090E02BE230E0F90120812068FC012083CF
:1001E00000008BE290E02BE230E0F90120812F77D4
:1001F000FC01208382E090E00E94770100000F90D4
:10020000DF91CF910895CF93DF931F92CDB7DEB7E3
:1002100089838BE290E02BE230E0F90120812064B9
:10022000FC01208385E290E02981FC0120838BE2A0
:1002300090E02BE230E0F90120812068FC0120836E
:1002400000008BE290E02BE230E0F90120812F7773
:10025000FC01208381E090E00E94770100000F9074
:10026000DF91CF910895CF93DF9300D000D0CDB729
:10027000DEB78A837C836B830E94AC008A8189838A
:1002800011C0898191E0980F99830E9460018B8150
:100290009C819C012F5F3F4F3C832B83FC0180811D
:1002A0000E9403018B819C81FC018081882349F796
:1002B00000000F900F900F900F90DF91CF91089555
:1002C000CF93DF931F92CDB7DEB7898389818131C8
:1002D00028F4898181580E94D30004C08981815506
:1002E0000E94D30000000F90DF91CF910895CF932B
:1002F000DF9300D000D000D0CDB7DEB79E838D83D2
:100300001A82198213C01C821B8206C000008B81D6
:100310009C8101969C838B838B819C818730934049
:10032000ACF389819A8101969A83898329813A81E4
:100330008D819E812817390734F3000026960FB669
:10034000F894DEBF0FBECDBFDF91CF910895CF935C
:10035000DF9300D01F92CDB7DEB789837B836A839A
:1003600089818A3031F48A819B81BC018DE00E94B1
:10037000A70180EC90E0FC018081882F90E08072E2
:100380009927892BB1F386EC90E02981FC01208329
:1003900080E090E00F900F900F90DF91CF91089543
:1003A000CF93DF9300D000D0CDB7DEB769837A83D7
:1003B0008B839C8389819A81AB81BC8180930E0160
:1003C00090930F01A0931001B093110180910E0141
:1003D00090910F01A0911001B091110180935101F2
:1003E00090935201A0935301B093540100000F90D9
:1003F0000F900F900F90DF91CF910895CF93DF93DF
:10040000CDB7DEB781E890E02BE0FC01208388E8DF
:1004100090E02DE730E0FC01318320838FE690E00F
:1004200022E0FC01208384E890E0FC01118210822C
:1004300080910E0190910F01A0911001B0911101D6
:100440008093510190935201A0935301B0935401B2
:100450008FE590E02FE530E0F90120812068FC0174
:1004600020830000DF91CF910895CF93DF93CDB724
:10047000DEB781E890E0FC0110820000DF91CF91AF
:100480000895CF93DF93CDB7DEB781E0809350011D
:100490000000DF91CF9108951F920F9200905F00AE
:1004A0000F92112400905B000F922F933F934F9374
:1004B0005F936F937F938F939F93AF93BF93EF93CC
:1004C000FF93CF93DF93CDB7DEB780915101909129
:1004D0005201A0915301B09154010197A109B109B2
:1004E0008093510190935201A0935301B093540112
:1004F0008091510190915201A0915301B09154010A
:10050000892B8A2B8B2B91F40E94410280910E0142
:1005100090910F01A0911001B091110180935101B0
:1005200090935201A0935301B09354010000DF91C6
:10053000CF91FF91EF91BF91AF919F918F917F915B
:100540006F915F914F913F912F910F9000925B00BF
:100550000F9000925F000F901F901895CF93DF933C
:1005600000D01F92CDB7DEB789836A834B838B811E
:10057000882371F08A81282F30E081E090E002C06A
:10058000880F991F2A95E2F7982F8981892B0EC031
:100590008A81282F30E081E090E002C0880F991F07
:1005A0002A95E2F7982F9095898189230F900F90D3
:1005B0000F90DF91CF910895CF93DF9300D0CDB707
:1005C000DEB789836A838A81282F30E081E090E05A
:1005D00002C0880F991F2A95E2F7982F89818923F5
:1005E0000F900F90DF91CF910895CF93DF93CDB708
:1005F000DEB72C970FB6F894DEBF0FBECDBF6D836C
:100600007E838F83988729873A874B875C878D8184
:100610009E81AF81B88529853A854B855C85BC0173
:10062000CD010E942E07DC01CB0189839A83AB8325
:10063000BC8389819A81AB81BC81892B8A2B8B2BCE
:1006400029F489859A85AB85BC8511C089859A85F1
:10065000AB85BC858D839E83AF83B88789819A8162
:10066000AB81BC8189879A87AB87BC87D0CFBC011F
:10067000CD012C960FB6F894DEBF0FBECDBFDF9133
:10068000CF9108950F931F93CF93DF93CDB7DEB72C
:1006900008E210E040E064E08FEF0E94AE02F80153
:1006A0008083000086E290E0FC018081809560E01C
:1006B0000E94DC02882311F081E3D3C086E290E03F
:1006C000FC018081809561E00E94DC02882311F0AA
:1006D00084E3C7C086E290E0FC018081809562E0FF
:1006E0000E94DC02882311F087E3BBC086E290E021
:1006F000FC018081809563E00E94DC02882311F078
:100700008AE2AFC008E210E040E065E08FEF0E94AF
:10071000AE02F8018083000086E290E0FC01808157
:10072000809560E00E94DC02882311F082E399C08A
:1007300086E290E0FC018081809561E00E94DC020D
:10074000882311F085E38DC086E290E0FC01808172
:10075000809562E00E94DC02882311F088E381C06A
:1007600086E290E0FC018081809563E00E94DC02DB
:10077000882311F080E375C008E210E040E066E0F5
:100780008FEF0E94AE02F8018083000086E290E0C5
:10079000FC018081809560E00E94DC02882311F0DA
:1007A00083E35FC086E290E0FC018081809561E098
:1007B0000E94DC02882311F086E353C086E290E0B9
:1007C000FC018081809562E00E94DC02882311F0A8
:1007D00089E347C086E290E0FC018081809563E078
:1007E0000E94DC02882311F083E23BC008E210E0A3
:1007F00040E067E08FEF0E94AE02F80180830000C6
:1008000086E290E0FC018081809560E00E94DC023D
:10081000882311F081E425C086E290E0FC0180810C
:10082000809561E00E94DC02882311F082E419C007
:1008300086E290E0FC018081809562E00E94DC020B
:10084000882311F083E40DC086E290E0FC018081F2
:10085000809563E00E94DC02882311F084E401C0EB
:1008600080E0DF91CF911F910F910895CF93DF9397
:1008700000D0CDB7DEB79A8389830E94420380936C
:100880006E0180916E01882F90E0092E000CAA0B5A
:10089000BB0B40E050E024E430E0841B950B2817AC
:1008A000390708F448C08A5B9F4FFC010C9450073D
:1008B0008FE180936F0143C081E080936F013FC05F
:1008C00082E080936F013BC083E080936F0137C06B
:1008D00084E080936F0133C085E080936F012FC067
:1008E00086E080936F012BC087E080936F0127C063
:1008F00088E080936F0123C089E080936F011FC05F
:100900008AE080936F011BC08BE080936F0117C05A
:100910008CE080936F0113C08DE080936F010FC056
:100920008EE080936F010BC010926F0108C08FE0C2
:1009300080936F0104C08BE180936F010000898177
:100940009A810F900F90DF91CF910895CF93DF930D
:1009500000D0CDB7DEB79A83898389819A818130AF
:100960009105B1F0823091051CF4892B39F04AC011
:1009700082309105D9F0039739F144C08EE491E0BB
:1009800040E150E0BC0180E791E00E9459073FC080
:1009900080915501803128F481E090E09A83898329
:1009A00036C082E090E09A83898331C080915601FD
:1009B000863128F482E090E09A83898328C083E01E
:1009C00090E09A83898323C080915601853248F450
:1009D00080915501882329F083E090E09A838983F0
:1009E00016C081E090E09A83898340E150E060E0A6
:1009F00070E080E791E00E94590710925501109233
:100A0000560105C081E090E09A83898300008981C6
:100A10009A818130910569F08230910524F4892B07
:100A200009F469C069C082309105C9F00397A9F142
:100A300063C020911201309113018091550191E022
:100A4000980F90935501882F90E0820F931F41E0FB
:100A500050E0BC0180E791E00E9460074DC040E19A
:100A600050E060E070E080E791E00E94590720913B
:100A70001201309113018091560191E0980F9093EB
:100A80005601882F90E0820F931F40E150E0BC0197
:100A900080E791E00E9470072FC0809155019FEF81
:100AA000980F90935501482F50E0209112013091FA
:100AB00013018091560191E0980F90935601882F71
:100AC00090E0820F931FBC0180E791E00E947007C5
:100AD00080E791E09C01F90101900020E9F7CF0146
:100AE0000197821B930B80599E4F20E230E0FC015E
:100AF0003183208301C0000089819A810F900F907B
:100B0000DF91CF910895CF93DF9300D0CDB7DEB7BB
:100B10009A83898389819A81009719F0019731F02E
:100B20000AC081E090E09A8389830AC081E090E066
:100B30009A83898305C081E090E09A8389830000CD
:100B400000000E94AC0060E771E081E00E94330188
:100B500089819A810F900F90DF91CF9108950F9323
:100B60001F93CF93DF93CDB7DEB72D970FB6F894D1
:100B7000DEBF0FBECDBF84E290E02FEFFC012083EB
:100B800085E290E0FC01108287E290E020EFFC011A
:100B9000208388E290E02FE0FC0120838AE290E04D
:100BA0002FEFFC0120838BE290E0FC0110820E9479
:100BB000B70088E591E09B878A8783E691E09D876F
:100BC0008C8782E090E098878F838FEF8987898573
:100BD0008093580188EE93E0A0E0B0E08093590143
:100BE00090935A01A0935B01B0935C0180915901ED
:100BF00090915A01A0915B01B0915C0180935D01DD
:100C000090935E01A0935F01B093600186EA94E047
:100C1000909362018093610189858093630188EEDE
:100C200093E0A0E0B0E08093640190936501A0930D
:100C30006601B09367018091640190916501A09174
:100C40006601B09167018093680190936901A09358
:100C50006A01B0936B0183E895E090936D018093F6
:100C60006C018A859B85FC0181819281A381B4817D
:100C70008A839B83AC83BD8381E08E8324C08E8175
:100C8000882F90E0880F991F9E012F5F3F4F820FA2
:100C9000931F0996FC0180819181FC0121813281A1
:100CA000438154818A819B81AC81BD81BC01CD018E
:100CB0000E94F502DC01CB018A839B83AC83BD8358
:100CC0008E818F5F8E838E81282F30E08F81988573
:100CD00028173907A0F28A819B81AC81BD81BC01B4
:100CE000CD010E94D0010E94FE011982A6C0898117
:100CF000882F90E0880F991F9E012F5F3F4F820F32
:100D0000931F0996FC0180819181FC012581368128
:100D1000478150858981882F90E0880F991FBE01F7
:100D20006F5F7F4F860F971F0996FC01808191812D
:100D3000FC0181819281A381B481281739074A0778
:100D40005B0709F049C08981882F90E0880F991FBF
:100D50009E012F5F3F4F820F931F0996FC01008178
:100D600011818981882F90E0880F991F9E012F5F44
:100D70003F4F820F931F0996FC0180819181FC01F6
:100D8000218532858981882F90E0880F991FAE01D7
:100D90004F5F5F4F840F951F0996FC018081918101
:100DA000FC018081082E000C990BF9010995F801CE
:100DB00080838981882F90E0880F991F9E012F5F83
:100DC0003F4F820F931F0996FC0180819181FC01A6
:100DD00015821682178210868981882F90E0880FED
:100DE000991F9E012F5F3F4F820F931F0996FC01B1
:100DF000608171818981882F90E0880F991F9E0101
:100E00002F5F3F4F820F931F0996FC0180819181D4
:100E1000FC0125813681478150858A819B81AC8187
:100E2000BD81820F931FA41FB51FFB01858396838D
:100E3000A783B08789818F5F89838981282F30E0DC
:100E40008F8198852817390708F451CF00008091C9
:100E500050018823E1F31092500147CFA1E21A2EEE
:100E6000AA1BBB1BFD010DC0AA1FBB1FEE1FFF1F4E
:100E7000A217B307E407F50720F0A21BB30BE40B9E
:100E8000F50B661F771F881F991F1A9469F76095E5
:100E90007095809590959B01AC01BD01CF0108959F
:100EA000EE0FFF1F0024001C0BBE0790F691E02DF3
:100EB0000994DC0101C06D9341505040E0F7089562
:100EC000FB01DC010D900020E9F7119741505040E3
:100ED00028F0019000200D92C9F708951C92089502
:100EE000FB01DC014150504048F001900D92002080
:100EF000C9F701C01D9241505040E0F70895F894A1
:020F0000FFCF21
:100F02000000000200000000A70100000000010034
:100F1200000017013D010F43533132304220697303
:100F2200206C6567656E642E2E2E207761697420B1
:100F3200666F72206974204441525921002020209A
:100F420020202020202020202020202020002000DF
:00000001FF
