:100000000C948B000C94AA000C94AA000C94AA00E7
:100010000C94AA000C94AA000C94AA000C94AA00B8
:100020000C94AA000C94AA000C94AA000C94AA00A8
:100030000C94AA000C944C020C94AA000C94AA00F4
:100040000C94AA000C94AA000C94AA000C94AA0088
:100050000C94AA000C94AA000C94AA000C94AA0078
:100060000C94AA000C94AA000C94AA000C94AA0068
:100070000C94AA000C94AA000C94AA000C94AA0058
:100080000C94AA000C94AA000C94AA0058049B0497
:100090009B049B049B049B049B049B049B049B0468
:1000A0009B049B049B049B049B049B049B049B0458
:1000B0009B049B049B049B049B049B049B049B0448
:1000C0009B049B049B049B049B049B049B049B0438
:1000D0009B0497049B049B049B049B049B049B042C
:1000E00090049B049B049B049B049B0494045C0469
:1000F0006004640468046C047004740478047C0470
:100100009B049B049B049B049B049B049B04800412
:10011000840488048C0411241FBECFEFD0E4DEBF1A
:10012000CDBF11E0A0E0B1E0E4EFFCE000E00BBFE8
:1001300002C007900D92A231B107D9F721E0A2E1E8
:10014000B1E001C01D92AF32B207E1F70E94D904BD
:100150000C9478060C940000CF93DF93CDB7DEB7F4
:1001600081E00E94D3000000DF91CF910895CF93EA
:10017000DF93CDB7DEB784E690E00E94770188E395
:100180000E94D30086E00E94D3008FE00E94D3003B
:1001900081E00E94D3008AE090E00E947701000095
:1001A000DF91CF910895CF93DF931F92CDB7DEB744
:1001B00089838BE290E02BE230E0F90120812F7BF4
:1001C000FC01208385E290E02981FC0120838BE201
:1001D00090E02BE230E0F90120812068FC012083CF
:1001E00000008BE290E02BE230E0F90120812F77D4
:1001F000FC01208382E090E00E94770100000F90D4
:10020000DF91CF910895CF93DF931F92CDB7DEB7E3
:1002100089838BE290E02BE230E0F90120812064B9
:10022000FC01208385E290E02981FC0120838BE2A0
:1002300090E02BE230E0F90120812068FC0120836E
:1002400000008BE290E02BE230E0F90120812F7773
:10025000FC01208381E090E00E94770100000F9074
:10026000DF91CF910895CF93DF9300D000D0CDB729
:10027000DEB78A837C836B830E94AC008A8189838A
:1002800011C0898191E0980F99830E9460018B8150
:100290009C819C012F5F3F4F3C832B83FC0180811D
:1002A0000E9403018B819C81FC018081882349F796
:1002B00000000F900F900F900F90DF91CF91089555
:1002C000CF93DF931F92CDB7DEB7898389818131C8
:1002D00028F4898181580E94D30004C08981815506
:1002E0000E94D30000000F90DF91CF910895CF932B
:1002F000DF9300D000D000D0CDB7DEB79E838D83D2
:100300001A82198213C01C821B8206C000008B81D6
:100310009C8101969C838B838B819C818730934049
:10032000ACF389819A8101969A83898329813A81E4
:100330008D819E812817390734F3000026960FB669
:10034000F894DEBF0FBECDBFDF91CF910895CF935C
:10035000DF9300D01F92CDB7DEB789837B836A839A
:1003600089818A3031F48A819B81BC018DE00E94B1
:10037000A70180EC90E0FC018081882F90E08072E2
:100380009927892BB1F386EC90E02981FC01208329
:1003900080E090E00F900F900F90DF91CF91089543
:1003A000CF93DF9300D000D0CDB7DEB769837A83D7
:1003B0008B839C8389819A81AB81BC8180930E0160
:1003C00090930F01A0931001B093110180910E0141
:1003D00090910F01A0911001B09111018093130130
:1003E00090931401A0931501B093160100000F9093
:1003F0000F900F900F90DF91CF910895CF93DF93DF
:10040000CDB7DEB781E890E02BE0FC01208388E8DF
:1004100090E02DE730E0FC01318320838FE690E00F
:1004200022E0FC01208384E890E0FC01118210822C
:1004300080910E0190910F01A0911001B0911101D6
:100440008093130190931401A0931501B0931601AA
:100450008FE590E02FE530E0F90120812068FC0174
:1004600020830000DF91CF910895CF93DF93CDB724
:10047000DEB781E890E0FC0110820000DF91CF91AF
:100480000895CF93DF93CDB7DEB781E0809312015B
:100490000000DF91CF9108951F920F9200905F00AE
:1004A0000F92112400905B000F922F933F934F9374
:1004B0005F936F937F938F939F93AF93BF93EF93CC
:1004C000FF93CF93DF93CDB7DEB780911301909167
:1004D0001401A0911501B09116010197A109B1096C
:1004E0008093130190931401A0931501B09316010A
:1004F0008091130190911401A0911501B091160102
:10050000892B8A2B8B2B91F40E94410280910E0142
:1005100090910F01A0911001B091110180931301EE
:1005200090931401A0931501B09316010000DF9180
:10053000CF91FF91EF91BF91AF919F918F917F915B
:100540006F915F914F913F912F910F9000925B00BF
:100550000F9000925F000F901F901895CF93DF933C
:1005600000D01F92CDB7DEB789836A834B838B811E
:10057000882371F08A81282F30E081E090E002C06A
:10058000880F991F2A95E2F7982F8981892B0EC031
:100590008A81282F30E081E090E002C0880F991F07
:1005A0002A95E2F7982F9095898189230F900F90D3
:1005B0000F90DF91CF910895CF93DF9300D0CDB707
:1005C000DEB789836A838A81282F30E081E090E05A
:1005D00002C0880F991F2A95E2F7982F89818923F5
:1005E0000F900F90DF91CF910895CF93DF93CDB708
:1005F000DEB72C970FB6F894DEBF0FBECDBF6D836C
:100600007E838F83988729873A874B875C878D8184
:100610009E81AF81B88529853A854B855C85BC0173
:10062000CD010E944D06DC01CB0189839A83AB8307
:10063000BC8389819A81AB81BC81892B8A2B8B2BCE
:1006400029F489859A85AB85BC8511C089859A85F1
:10065000AB85BC858D839E83AF83B88789819A8162
:10066000AB81BC8189879A87AB87BC87D0CFBC011F
:10067000CD012C960FB6F894DEBF0FBECDBFDF9133
:10068000CF9108950F931F93CF93DF93CDB7DEB72C
:1006900008E210E040E064E08FEF0E94AE02F80153
:1006A0008083000086E290E0FC018081809560E01C
:1006B0000E94DC02882311F081E3D3C086E290E03F
:1006C000FC018081809561E00E94DC02882311F0AA
:1006D00084E3C7C086E290E0FC018081809562E0FF
:1006E0000E94DC02882311F087E3BBC086E290E021
:1006F000FC018081809563E00E94DC02882311F078
:100700008AE2AFC008E210E040E065E08FEF0E94AF
:10071000AE02F8018083000086E290E0FC01808157
:10072000809560E00E94DC02882311F082E399C08A
:1007300086E290E0FC018081809561E00E94DC020D
:10074000882311F085E38DC086E290E0FC01808172
:10075000809562E00E94DC02882311F088E381C06A
:1007600086E290E0FC018081809563E00E94DC02DB
:10077000882311F080E375C008E210E040E066E0F5
:100780008FEF0E94AE02F8018083000086E290E0C5
:10079000FC018081809560E00E94DC02882311F0DA
:1007A00083E35FC086E290E0FC018081809561E098
:1007B0000E94DC02882311F086E353C086E290E0B9
:1007C000FC018081809562E00E94DC02882311F0A8
:1007D00089E347C086E290E0FC018081809563E078
:1007E0000E94DC02882311F083E23BC008E210E0A3
:1007F00040E067E08FEF0E94AE02F80180830000C6
:1008000086E290E0FC018081809560E00E94DC023D
:10081000882311F081E425C086E290E0FC0180810C
:10082000809561E00E94DC02882311F082E419C007
:1008300086E290E0FC018081809562E00E94DC020B
:10084000882311F083E40DC086E290E0FC018081F2
:10085000809563E00E94DC02882311F084E401C0EB
:1008600080E0DF91CF911F910F910895CF93DF9397
:1008700000D0CDB7DEB79A8389830E94420380936C
:100880002D0180912D01882F90E0092E000CAA0BDC
:10089000BB0B40E050E024E430E0841B950B2817AC
:1008A000390708F448C08A5B9F4FFC010C946F061F
:1008B0008FE180932E0143C081E080932E013FC0E1
:1008C00082E080932E013BC083E080932E0137C0ED
:1008D00084E080932E0133C085E080932E012FC0E9
:1008E00086E080932E012BC087E080932E0127C0E5
:1008F00088E080932E0123C089E080932E011FC0E1
:100900008AE080932E011BC08BE080932E0117C0DC
:100910008CE080932E0113C08DE080932E010FC0D8
:100920008EE080932E010BC010922E0108C08FE044
:1009300080932E0104C08BE180932E0100008981F9
:100940009A810F900F90DF91CF910895CF93DF930D
:1009500000D01F92CDB7DEB79B838A838A819B81AB
:10096000009719F0019731F00AC081E090E09B8375
:100970008A830AC081E090E09B838A8305C081E07E
:1009800090E09B838A8300008A819B81019721F4F8
:1009900080912E018983000085E290E02981FC018D
:1009A00020838A819B810F900F900F90DF91CF91D0
:1009B00008950F931F93CF93DF93CDB7DEB72D9795
:1009C0000FB6F894DEBF0FBECDBF84E290E02FEFEC
:1009D000FC01208385E290E0FC01108287E290E038
:1009E00020EFFC01208388E290E02FE0FC012083CF
:1009F00087E191E09B878A8782E291E09D878C87DF
:100A000082E090E098878F838FEF89878985809334
:100A100017018AE090E0A0E0B0E080931801909385
:100A20001901A0931A01B0931B01809118019091B4
:100A30001901A0911A01B0911B0180931C019093A0
:100A40001D01A0931E01B0931F0186E394E09093D3
:100A50002101809320018985809322018AE090E022
:100A6000A0E0B0E08093230190932401A09325019E
:100A7000B09326018091230190912401A09125013A
:100A8000B09126018093270190932801A09329011A
:100A9000B0932A0186EA94E090932C0180932B0175
:100AA0008A859B85FC0181819281A381B4818A839F
:100AB0009B83AC83BD8381E08E8324C08E81882F8D
:100AC00090E0880F991F9E012F5F3F4F820F931F69
:100AD0000996FC0180819181FC0121813281438151
:100AE00054818A819B81AC81BD81BC01CD010E9472
:100AF000F502DC01CB018A839B83AC83BD838E81AD
:100B00008F5F8E838E81282F30E08F819885281704
:100B10003907A0F28A819B81AC81BD81BC01CD01E6
:100B20000E94D0010E94FE011982A6C08981882FEF
:100B300090E0880F991F9E012F5F3F4F820F931FF8
:100B40000996FC0180819181FC01258136814781D4
:100B500050858981882F90E0880F991FBE016F5FB3
:100B60007F4F860F971F0996FC0180819181FC01C0
:100B700081819281A381B481281739074A075B07D5
:100B800009F049C08981882F90E0880F991F9E0144
:100B90002F5F3F4F820F931F0996FC010081118147
:100BA0008981882F90E0880F991F9E012F5F3F4F0A
:100BB000820F931F0996FC0180819181FC012185A0
:100BC00032858981882F90E0880F991FAE014F5F91
:100BD0005F4F840F951F0996FC0180819181FC0174
:100BE0008081082E000C990BF9010995F80180838A
:100BF0008981882F90E0880F991F9E012F5F3F4FBA
:100C0000820F931F0996FC0180819181FC0115825E
:100C10001682178210868981882F90E0880F991F8D
:100C20009E012F5F3F4F820F931F0996FC01608149
:100C300071818981882F90E0880F991F9E012F5F15
:100C40003F4F820F931F0996FC0180819181FC0127
:100C500025813681478150858A819B81AC81BD8108
:100C6000820F931FA41FB51FFB0185839683A78363
:100C7000B08789818F5F89838981282F30E08F81B8
:100C800098852817390708F451CF00008091120188
:100C90008823E1F31092120147CFA1E21A2EAA1B7A
:100CA000BB1BFD010DC0AA1FBB1FEE1FFF1FA2171C
:100CB000B307E407F50720F0A21BB30BE40BF50B19
:100CC000661F771F881F991F1A9469F760957095A2
:100CD000809590959B01AC01BD01CF010895EE0F69
:100CE000FF1F0024001C0BBE0790F691E02D099415
:040CF000F894FFCFA6
:100CF4000000000200000000A70100000000010045
:020D04000000ED
:00000001FF
