:100000000C9446000C9465000C9465000C946500FB
:100010000C9465000C9465000C9465000C946500CC
:100020000C9465000C9465000C9465000C946500BC
:100030000C9465000C9407020C9465000C94650008
:100040000C9465000C9465000C9465000C9465009C
:100050000C9465000C9465000C9465000C9465008C
:100060000C9465000C9465000C9465000C9465007C
:100070000C9465000C9465000C9465000C9465006C
:100080000C9465000C9465000C94650011241FBE4F
:10009000CFEFD0E4DEBFCDBF11E0A0E0B1E0E8E0FB
:1000A000FEE000E00BBF02C007900D92A434B10740
:1000B000D9F721E0A4E4B1E001C01D92A336B20754
:1000C000E1F70E945A050C9402070C940000CF93AC
:1000D000DF93CDB7DEB781E00E948E000000DF9194
:1000E000CF910895CF93DF93CDB7DEB784E690E04C
:1000F0000E94320188E30E948E0086E00E948E00FA
:100100008FE00E948E0081E00E948E008AE090E0E5
:100110000E9432010000DF91CF910895CF93DF93C9
:100120001F92CDB7DEB789838BE290E02BE230E0FF
:10013000F90120812F7BFC01208385E290E0298159
:10014000FC0120838BE290E02BE230E0F90120817A
:100150002068FC01208300008BE290E02BE230E07D
:10016000F90120812F77FC01208382E090E00E943A
:10017000320100000F90DF91CF910895CF93DF936C
:100180001F92CDB7DEB789838BE290E02BE230E09F
:10019000F90120812064FC01208385E290E029811F
:1001A000FC0120838BE290E02BE230E0F90120811A
:1001B0002068FC01208300008BE290E02BE230E01D
:1001C000F90120812F77FC01208381E090E00E94DB
:1001D000320100000F90DF91CF910895CF93DF930C
:1001E00000D000D0CDB7DEB78A837C836B830E94BA
:1001F00067008A81898311C0898191E0980F998372
:100200000E941B018B819C819C012F5F3F4F3C838F
:100210002B83FC0180810E94BE008B819C81FC01AC
:100220008081882349F700000F900F900F900F9066
:10023000DF91CF910895CF93DF931F92CDB7DEB7B3
:1002400089838981813128F4898181580E948E00B7
:1002500004C0898181550E948E0000000F90DF91BB
:10026000CF910895CF93DF9300D000D000D0CDB7C9
:10027000DEB79E838D831A82198213C01C821B8273
:1002800006C000008B819C8101969C838B838B81AF
:100290009C8187309340ACF389819A8101969A833F
:1002A000898329813A818D819E812817390734F30A
:1002B000000026960FB6F894DEBF0FBECDBFDF91CB
:1002C000CF910895CF93DF9300D01F92CDB7DEB7C3
:1002D00089837B836A8389818A3031F48A819B8117
:1002E000BC018DE00E94620180EC90E0FC01808105
:1002F000882F90E080729927892BB1F386EC90E0EB
:100300002981FC01208380E090E00F900F900F90F6
:10031000DF91CF910895CF93DF9300D000D0CDB778
:10032000DEB769837A838B839C8389819A81AB81D1
:10033000BC8180930E0190930F01A0931001B093A4
:10034000110180910E0190910F01A0911001B091C7
:1003500011018093450190934601A0934701B0930A
:10036000480100000F900F900F900F90DF91CF91F8
:100370000895CF93DF93CDB7DEB781E890E02BE00F
:10038000FC01208388E890E02DE730E0FC01318318
:1003900020838FE690E022E0FC01208384E890E057
:1003A000FC011182108280910E0190910F01A091A9
:1003B0001001B09111018093450190934601A093E3
:1003C0004701B09348018FE590E02FE530E0F90157
:1003D00020812068FC0120830000DF91CF910895E7
:1003E000CF93DF93CDB7DEB781E890E0FC011082B8
:1003F0000000DF91CF910895CF93DF93CDB7DEB7A3
:1004000081E0809344010000DF91CF9108951F9215
:100410000F9200905F000F92112400905B000F92EA
:100420002F933F934F935F936F937F938F939F93FC
:10043000AF93BF93EF93FF93CF93DF93CDB7DEB727
:100440008091450190914601A0914701B0914801EA
:100450000197A109B1098093450190934601A093AA
:100460004701B09348018091450190914601A091C8
:100470004701B0914801892B8A2B8B2B91F40E9464
:10048000FC0180910E0190910F01A0911001B0919B
:1004900011018093450190934601A0934701B093C9
:1004A00048010000DF91CF91FF91EF91BF91AF9193
:1004B0009F918F917F916F915F914F913F912F917C
:1004C0000F9000925B000F9000925F000F901F90C2
:1004D0001895CF93DF9300D01F92CDB7DEB78983F5
:1004E0006A834B838B81882371F08A81282F30E0C7
:1004F00081E090E002C0880F991F2A95E2F7982FBB
:100500008981892B0EC08A81282F30E081E090E01C
:1005100002C0880F991F2A95E2F7982F909589813C
:1005200089230F900F900F90DF91CF910895CF9373
:10053000DF9300D0CDB7DEB789836A838A81282F05
:1005400030E081E090E002C0880F991F2A95E2F721
:10055000982F898189230F900F90DF91CF91089573
:10056000CF93DF93CDB7DEB72C970FB6F894DEBFED
:100570000FBECDBF6D837E838F83988729873A878F
:100580004B875C878D819E81AF81B88529853A85AF
:100590004B855C85BC01CD010E94E006DC01CB01EE
:1005A00089839A83AB83BC8389819A81AB81BC8127
:1005B000892B8A2B8B2B29F489859A85AB85BC8561
:1005C00011C089859A85AB85BC858D839E83AF8359
:1005D000B88789819A81AB81BC8189879A87AB87EB
:1005E000BC87D0CFBC01CD012C960FB6F894DEBFEE
:1005F0000FBECDBFDF91CF9108950F931F93CF937F
:10060000DF93CDB7DEB708E210E040E064E08FEFA3
:100610000E946902F8018083000086E290E0FC01FC
:100620008081809560E00E949702882311F081E329
:10063000D3C086E290E0FC018081809561E00E9459
:100640009702882311F084E3C7C086E290E0FC01A2
:100650008081809562E00E949702882311F087E3F1
:10066000BBC086E290E0FC018081809563E00E943F
:100670009702882311F08AE2AFC008E210E040E060
:1006800065E08FEF0E946902F8018083000086E236
:1006900090E0FC018081809560E00E9497028823B1
:1006A00011F082E399C086E290E0FC0180818095A0
:1006B00061E00E949702882311F085E38DC086E2F5
:1006C00090E0FC018081809562E00E94970288237F
:1006D00011F088E381C086E290E0FC018081809582
:1006E00063E00E949702882311F080E375C008E25E
:1006F00010E040E066E08FEF0E946902F80180831D
:10070000000086E290E0FC018081809560E00E941C
:100710009702882311F083E35FC086E290E0FC013A
:100720008081809561E00E949702882311F086E322
:1007300053C086E290E0FC018081809562E00E94D7
:100740009702882311F089E347C086E290E0FC011C
:100750008081809563E00E949702882311F083E2F4
:100760003BC008E210E040E067E08FEF0E946902C2
:10077000F8018083000086E290E0FC018081809592
:1007800060E00E949702882311F081E425C086E290
:1007900090E0FC018081809561E00E9497028823AF
:1007A00011F082E419C086E290E0FC01808180951E
:1007B00062E00E949702882311F083E40DC086E274
:1007C00090E0FC018081809563E00E94970288237D
:1007D00011F084E401C080E0DF91CF911F910F916F
:1007E0000895CF93DF9300D0CDB7DEB79A83898386
:1007F00089819A818130910551F1823091051CF4F3
:10080000892B39F048C08230910569F10397B9F11D
:1008100042C080915F01813029F481E090E09A83A9
:1008200089833CC080915F01823029F482E090E0AE
:100830009A83898333C080915F01843029F483E0F7
:1008400090E09A8389832AC01A82198227C08091F6
:100850005F01882329F081E090E09A8389831EC09C
:100860001A8219821BC080915F01882329F082E0DF
:1008700090E09A83898312C01A8219820FC08091F6
:100880005F01882329F083E090E09A83898306C082
:100890001A82198203C01A821982000089819A8102
:1008A0008130910561F0823091051CF4892B99F01B
:1008B00013C08230910539F0039749F00DC082E0F2
:1008C0008093180109C082E18093180105C082E07D
:1008D0008093180101C0000089819A810F900F90C8
:1008E000DF91CF910895CF93DF9300D01F92CDB7C2
:1008F000DEB79B838A838A819B818230910529F1AF
:10090000833091052CF4009769F0019781F057C06E
:1009100084309105A9F1843091056CF1059709F4B3
:1009200043C04DC081E090E09B838A834BC080919F
:100930005F01843029F483E090E09B838A8342C086
:1009400081E090E09B838A833DC090911601809165
:100950001801981759F09091170180911801981774
:1009600029F083E090E09B838A832CC084E090E0B0
:100970009B838A8327C082E090E09B838A8322C086
:1009800080915F01843059F485E090E09B838A83F5
:1009900089E0809316018CE18093170113C084E0F5
:1009A00090E09B838A830EC080915F01843029F49C
:1009B00085E090E09B838A8302C01B821A821B829F
:1009C0001A8200008A819B818230910509F469C0F6
:1009D000833091051CF4892B41F064C0843091056B
:1009E00009F44EC0049794F05DC08091120190917B
:1009F0001301909362018093610180916101909154
:100A00006201BC0181E00E94EE004CC080911601A1
:100A1000813019F480E180931601809117018131B2
:100A200019F480E2809317010E94670080911601FB
:100A30009FEF980F909316010E941B0183E2898318
:100A40008981882F90E00E94BE00809117019FEF5E
:100A5000980F909317010E941B0183E2898389817B
:100A6000882F90E00E94BE00809118010E941B0117
:100A70008AE289838981882F90E00E94BE0012C09B
:100A8000809114019091150190936201809361010E
:100A90008091610190916201BC0181E00E94EE00B1
:100AA00001C000008A819B810F900F900F90DF9111
:100AB000CF9108950F931F93CF93DF93CDB7DEB7F8
:100AC0002D970FB6F894DEBF0FBECDBF81E290E048
:100AD000FC01108282E290E02FEFFC01208384E28F
:100AE00090E02FEFFC01208385E290E0FC01108272
:100AF0008AE290E02FEFFC0120838BE290E0FC0182
:100B000010820E94720089E491E09B878A8784E5C5
:100B100091E09D878C8782E090E098878F838FEFAC
:100B200089878985809349018AE090E0A0E0B0E060
:100B300080934A0190934B01A0934C01B0934D01D7
:100B400080914A0190914B01A0914C01B0914D01CF
:100B500080934E0190934F01A0935001B0935101A7
:100B600081EF93E0909353018093520189858093A4
:100B7000540184EF91E0A0E0B0E0809355019093A0
:100B80005601A0935701B09358018091550190915F
:100B90005601A0915701B09158018093590190934B
:100BA0005A01A0935B01B0935C0183E794E09093BA
:100BB0005E0180935D018A859B85FC018181928124
:100BC000A381B4818A839B83AC83BD8381E08E83C0
:100BD00024C08E81882F90E0880F991F9E012F5F7F
:100BE0003F4F820F931F0996FC0180819181FC0188
:100BF00021813281438154818A819B81AC81BD8175
:100C0000BC01CD010E94B002DC01CB018A839B8331
:100C1000AC83BD838E818F5F8E838E81282F30E0E1
:100C20008F81988528173907A0F28A819B81AC8132
:100C3000BD81BC01CD010E948B010E94B90180E2FF
:100C400090E0FC0180818095877080935F0119821C
:100C5000A6C08981882F90E0880F991F9E012F5F81
:100C60003F4F820F931F0996FC0180819181FC0107
:100C700025813681478150858981882F90E0880FB2
:100C8000991FBE016F5F7F4F860F971F0996FC016A
:100C900080819181FC0181819281A381B481281797
:100CA00039074A075B0709F049C08981882F90E01E
:100CB000880F991F9E012F5F3F4F820F931F099648
:100CC000FC01008111818981882F90E0880F991F94
:100CD0009E012F5F3F4F820F931F0996FC01808179
:100CE0009181FC01218532858981882F90E0880FD0
:100CF000991FAE014F5F5F4F840F951F0996FC014E
:100D000080819181FC018081082E000C990BF901F2
:100D10000995F80180838981882F90E0880F991FB9
:100D20009E012F5F3F4F820F931F0996FC01808128
:100D30009181FC0115821682178210868981882F85
:100D400090E0880F991F9E012F5F3F4F820F931FE6
:100D50000996FC01608171818981882F90E0880F5C
:100D6000991F9E012F5F3F4F820F931F0996FC0131
:100D700080819181FC0125813681478150858A815E
:100D80009B81AC81BD81820F931FA41FB51FFB0106
:100D900085839683A783B08789818F5F89838981C3
:100DA000282F30E08F8198852817390708F451CF14
:100DB0000000809144018823E1F3109244013FCF69
:100DC000A1E21A2EAA1BBB1BFD010DC0AA1FBB1F4F
:100DD000EE1FFF1FA217B307E407F50720F0A21BC1
:100DE000B30BE40BF50B661F771F881F991F1A942E
:100DF00069F760957095809590959B01AC01BD0158
:080E0000CF010895F894FFCF23
:100E08000000000200000000620100000000010074
:100E1800000019013B01091C02202A202020202063
:100E280020202320202020202020202020202020B7
:100E38002020202020202320202000594F55204CFE
:040E48004F534500BF
:00000001FF
